:020000040800F2
:10000000480D0020D91600083917000839170008D4
:1000100039170008391700083917000800000000D8
:100020000000000000000000000000003917000878
:1000300039170008000000003917000841130008B4
:100040003917000839170008391700083917000850
:100050003917000839170008391700083917000840
:100060003917000839170008391700083917000830
:100070003917000839170008391700083917000820
:100080003917000839170008391700083917000810
:100090003917000839170008391700083917000800
:1000A00039170008391700083917000839170008F0
:1000B00039170008391700083917000839170008E0
:1000C00039170008391700083917000839170008D0
:1000D00039170008391700083917000839170008C0
:1000E00039170008391700083917000839170008B0
:1000F00039170008391700083917000839170008A0
:10010000391700083917000839170008391700088F
:10011000391700083917000839170008391700087F
:10012000391700083917000839170008391700086F
:100130005FF808F180B584B000AFF871B971BA808A
:10014000FB70FB79082B01D9FF23E1E0BB79022B7F
:100150000ED0042B0CD0012B08D107F10C034FF467
:1001600070601946042204F015F901E0FB23CFE08A
:1001700000BFFB7803F00603002B01D0FA23C7E091
:10018000FB78002B24D0BB79012B02D0022B08D0A6
:100190001EE0FB7803F02103002B01D1FA23B7E026
:1001A00016E0FB7803F02003002B05D0FB785BB250
:1001B000002B01DBFA23ABE0FB7803F01003002BEC
:1001C00005D0FB785BB2002B01DBFA23A0E000BF77
:1001D000FB79184600F0ACF8FB799B000133DB009B
:1001E0001A46FB7823F00F03D9B2BB790B43DBB27D
:1001F000DBB21046194604F077F8BB88002B10D10B
:10020000464B1B885A1C91B2444A1180BB80434B19
:100210001A884FF6F0739A4203D1404B4FF4404294
:100220001A80FB799B000133DB0003F580631A46DB
:10023000BB881B0A9BB2DBB21046194604F054F887
:10024000FB799B000133DB0003F5A0631A46BB88F2
:10025000DBB21046194604F047F8FB799B000133E6
:10026000DB0003F580731846012104F03DF800BF60
:10027000FB799B000133DB0003F58073184603F024
:10028000DFFF0346002BF3D1FB79012202FA03F3CF
:100290009BB2DB439AB2224B1B889BB213409BB2AA
:1002A0009AB21F4B1A80FB7803F00102FB7902FA25
:1002B00003F39AB21A4B1B889BB213439BB29AB2B8
:1002C000174B1A80FB79012202FA03F39BB2DB433E
:1002D0009AB2144B1B889BB213409BB29AB2114B3B
:1002E0001A80FA79104B002123F81210FB790F4A7B
:1002F0000021D15400BFFB799B000133DB0003F5E3
:100300004073184603F09CFF0346002BF3D0FB79A3
:100310005BB218461037BD4680BD00BF000000200C
:10032000FC000020FE000020000100201001002041
:1003300080B582B000AF0346FB71FB79082B01D971
:10034000FF2355E0FB799B000133DB0003F580734D
:100350001846102103F0C8FF00BFFB799B00013352
:10036000DB0003F58073184603F06AFF0346002B99
:10037000F3D1FB799B000133DB0003F500731846D2
:100380001F2103F0B1FFFB79012202FA03F39BB2B4
:10039000DB439AB2194B1B889BB213409BB29AB2B3
:1003A000164B1A80FB79012202FA03F39BB2DB435E
:1003B0009AB2134B1B889BB213409BB29AB2104B5C
:1003C0001A80FA790F4B002123F81210FB790E4A9C
:1003D0000021D15400BFFB799B000133DB0003F502
:1003E0004073184603F02CFF0346002BF3D1012382
:1003F0005BB218460837BD4680BD00BFFC00002038
:10040000FE000020000100201001002080B584B013
:1004100000AF396013460246FA71BB80FB79082BA6
:1004200001D9FF23C1E0FB799B000133DB001846B3
:1004300003F006FF034603F00F03012B01D0FB235B
:10044000B3E0FB799B000133DB0003F540731846F2
:1004500003F0F6FE0346132B01D0FD23A5E03B6815
:100460001B78FB60FB681A023B6801331B7813445E
:10047000FB60FB681A023B6802331B781344FB6085
:10048000FB681A023B6803331B781344FB60FB686C
:10049000B3F1FF3F02D0FB68002B01D1F42384E0CD
:1004A000BB88002B01D1F5237FE0FB799B00013352
:1004B000DB0003F5406318463968042203F0D2FFDD
:1004C000FB799B000133DB0003F580531A46BB88A0
:1004D0001B0A9BB2DBB21046194603F005FFFB79FD
:1004E0009B000133DB0003F588531A46BB88DBB25F
:1004F0001046194603F0F8FEFB799B000133DB0040
:1005000003F580731846042103F0EEFE00BFFB796B
:100510009B000133DB0003F58073184603F090FE67
:100520000346002BF3D1234B1B881A46FB7942FA72
:1005300003F303F00103002B01D0002335E027E093
:10054000FB799B000133DB0003F50073184603F0D1
:1005500077FE034603F00803002B0BD0FB799B00CA
:100560000133DB0003F500731846082103F0BCFEDD
:10057000F3231AE0FB799B000133DB0003F54073A2
:10058000184603F05DFE0346002B01D1FC230CE06E
:10059000FB799B000133DB0003F54073184603F041
:1005A0004FFE0346172BCBD101235BB21846103701
:1005B000BD4680BDFC00002080B582B000AF034680
:1005C000FB71FB79082B01D9FF2361E0FB799B00CC
:1005D0000133DB00184603F033FE034603F00F033C
:1005E000012B01D0FB2353E0FB799B000133DB009F
:1005F00003F580731846082103F076FE00BFFB79EF
:100600009B000133DB0003F58073184603F018FEEE
:100610000346002BF3D1FB79012202FA03F39BB2CC
:10062000DB439AB21D4B1B889BB213409BB29AB21C
:100630001A4B1A801A4B1B881A46FB7942FA03F3AD
:1006400003F00103002B01D0002321E013E0FB792C
:100650009B000133DB0003F50073184603F0F0FD47
:10066000034603F00803002B05D0FB791846FFF77B
:100670005FFEF3230CE0FB799B000133DB0003F505
:100680004073184603F0DCFD0346002BDFD1012345
:100690005BB218460837BD4680BD00BFFE00002093
:1006A000FC00002080B584B000AF396013460246DC
:1006B000FA71BB800023FB730023BB81FB79082BFD
:1006C00002D94FF0FF33DEE0FB799B000133DB0002
:1006D000184603F0B5FD034603F00F03012B02D0CB
:1006E0006FF00403CFE0BB88002B02D16FF00D0345
:1006F000C9E0FB799B000133DB0003F5407318462A
:1007000003F09EFD0346FB73FB7B172B05D0FB7BA1
:100710001C2B02D06FF00603B5E05D4B1B881A4618
:10072000FB7942FA03F303F00103002B39D0FB7984
:100730009B000133DB0003F50073184603F080FDD6
:10074000034603F01F03FB73FB7B03F01003002B36
:1007500019D0FB799B000133DB0003F500731846C9
:10076000102103F0C1FDFB79012202FA03F39BB2D1
:10077000DB439AB2464B1B889BB213409BB29AB2A2
:10078000434B1A800DE0FB7B03F00803002B06D0DF
:10079000FB791846FFF7CCFD6FF00C0373E00023E4
:1007A00071E0FB799B000133DB0003F5F853184639
:1007B00003F046FD03469B02BB81BA88BB899A427F
:1007C00001D9BB89BB80FB79184603F0B3FE034611
:1007D000BB81FB799B000133DB0003F540731846B6
:1007E00003F02EFD0346FB73FB7B172B09D0FB7B2D
:1007F0001C2B06D0FB791846FFF79AFD6FF0060315
:1008000041E0244B1B881A46FB7942FA03F303F0BC
:100810000103002B05D0BA88BB899A4201D9002375
:1008200031E0BA88BB899A4212D800BFFA79BB88F6
:10083000104639681A4603F011FFFB799B0001331B
:10084000DB0003F580731846202103F04DFD00E026
:10085000B9E7FB799B000133DB0003F58073184691
:1008600003F0EEFC0346002BF3D1FB79012202FAE0
:1008700003F39AB2064B1B889BB213439BB29AB206
:10088000034B1A80BB8818461037BD4680BD00BF99
:10089000FE000020FC00002090B585B000AF39605C
:1008A00013460246FA71BB800023FB730023BB8111
:1008B000FB79082B02D94FF0FF339BE0FB799B00BB
:1008C0000133DB00184603F0BBFC034603F00F03C3
:1008D000012B02D06FF004038CE0BB88002B02D107
:1008E0006FF00D0386E0FB799B000133DB0003F51D
:1008F000F053184603F0A4FC03469B02BB81BA895F
:10090000BB889A4201D2BB89BB80FB79184603F0B1
:100910005BFE0346BB81FB799B000133DB0003F5E3
:100920004073184603F08CFC0346FB73FB7B172BCC
:1009300027D0FB7B1C2B1DD1BB89002B00D034E0C2
:10094000FB79184603F0F6FD03461C46FB799B0035
:100950000133DB0003F5F853184603F071FC03463E
:100960009B029C420DD1FB791846FFF7E1FC6FF02A
:1009700006033FE0FB791846FFF7DAFC6FF0060349
:1009800038E01E4B1B881A46FB7942FA03F303F04A
:100990000103002B04D0BB89002B01D1002329E0E7
:1009A000BB89002B00D000E0AFE7BA89BB889A4230
:1009B00001D2BB89BB80FA79BB88104639681A46D8
:1009C00003F0A6FEFB799B000133DB0003F5807387
:1009D0001846402103F088FC00BFFB799B000133DF
:1009E000DB0003F58073184603F02AFC0346002B56
:1009F000F3D1BB8818461437BD4690BDFC000020DB
:100A000080B586B000AFB9607B600346FB731346C8
:100A1000BB810023FB750023BB82FB7B082B02D923
:100A20004FF0FF3303E1FB7B9B000133DB001846F3
:100A300003F006FC034603F00F03022B04D0042B43
:100A400002D06FF00403F2E000BFBB89002B02D19B
:100A50006FF00D03EBE07B681B783B613B691A028A
:100A60007B6801331B7813443B613B691A027B6846
:100A700002331B7813443B613B691A027B680333E2
:100A80001B7813443B613B69002B02D16FF00B03D1
:100A9000CDE03B8C002B02D16FF00A03C7E0FB7B5B
:100AA0009B000133DB0003F54073184603F0C8FBDD
:100AB0000346FB75FB7D422B05D0FB7D222B02D02C
:100AC0006FF00603B3E0FB7B9B000133DB0003F513
:100AD000406318467968042203F0C4FCFB7B9B004A
:100AE0000133DB0003F580531A463B8C1B0A9BB293
:100AF000DBB21046194603F0F7FBFB7B9B0001338A
:100B0000DB0003F588531A463B8CDBB210461946CE
:100B100003F0EAFBFB7B9B000133DB0003F5F8539A
:100B2000184603F08DFB03469B02BB82BA89BB8A41
:100B30009A4201D9BB8ABB81FB7B184603F0FAFCC1
:100B40000346BB82FB7B9B000133DB0003F5407354
:100B5000184603F075FB0346002B02D16FF0030328
:100B600065E0354B1B881A46FB7B42FA03F303F022
:100B70000103002B05D0BA89BB8A9A4201D9002310
:100B800055E0BA89BB8A9A4212D800BFFA7BBB896A
:100B90001046B9681A4603F061FDFB7B9B000133E8
:100BA000DB0003F580731846202103F09DFB00E075
:100BB000C2E7FB7B9B000133DB0003F58073184623
:100BC00003F03EFB0346002BF3D1FB7B9B0001337C
:100BD000DB0003F50073184603F032FB034603F015
:100BE0001F03FB75FB7D03F01003002B0CD0FB7B78
:100BF0009B000133DB0003F500731846102103F05E
:100C000073FB00BFBB8912E0FB7D03F00803002BE0
:100C10000CD0FB7B9B000133DB0003F5007318460F
:100C2000082103F061FB6FF00C0300E0CDE71846EC
:100C30001837BD4680BD00BFFC00002080B588B0DD
:100C400000AFB9607B600346FB731346BB81002392
:100C5000FB83FB7B082B02D94FF0FF3363E1FB7B67
:100C60009B000133DB00184603F0EAFA03467B776A
:100C70007B7F03F00F03022B04D0042B02D06FF014
:100C8000040350E100BFBB89002B02D16FF00D03BC
:100C900049E1FA7BA64B33F81230002B28D1FB7BBD
:100CA000184603F091FC0346FB83FB7B9B0001335A
:100CB000DB0003F54073184603F0C2FA0346002B2D
:100CC00002D16FF003032EE19A4B1B881A46FB7B7F
:100CD00042FA03F303F00103002B04D0FB8B002B3B
:100CE00001D100231FE1FB8B002B00D000E0D6E7F1
:100CF000FB7B914A0021D1547B7F03F00703022B39
:100D000002D0042B6FD0D0E0FA7B894B33F812303D
:100D1000002B51D1FA7B07F1140310461946082223
:100D200003F0F6FCFB7B9B000133DB0003F58073D3
:100D30001846402103F0D8FA00BFFB7B9B0001332B
:100D4000DB0003F58073184603F07AFA0346002BA4
:100D5000F3D13A7D7B681A707B6801337A7D1A7013
:100D60007B680233BA7D1A707B680333FA7D1A7090
:100D70003B7E1A46BB6A1A80BB6A1B881B029AB26A
:100D80007B7E13449AB2BB6A1A80FA7BBB7E1946FB
:100D9000674B23F81210FA7BF97B654B33F811305F
:100DA0001B0299B2FB7E0B4499B2614B23F81210DF
:100DB000FB7B614A8021D154FA7B5D4B33F81230C2
:100DC000BA899A4202D2BB89FB8304E0FA7B584B72
:100DD00033F81230FB83FA7BFB8B1046B9681A4656
:100DE00003F096FC6DE0FA7B514B33F81230002B88
:100DF00044D1FA7B07F1140310461946022203F08E
:100E000087FCFB7B9B000133DB0003F580731846F6
:100E1000402103F069FA00BFFB7B9B000133DB003C
:100E200003F58073184603F00BFA0346002BF3D149
:100E3000FA7B3B7D19463E4B23F81210FA7BF97B77
:100E40003B4B33F811301B0299B27B7D0B4499B2B6
:100E5000374B23F81210FA7B354B33F8122040F24F
:100E6000EA539A4206D9FB7B1846FFF761FA6FF402
:100E70007A7358E0FB7B304A8021D154FA7B2C4BAB
:100E800033F81230BA899A4202D2BB89FB8304E05C
:100E9000FA7B274B33F81230FB83FA7BFB8B10462F
:100EA000B9681A4603F034FC0BE0FA7BFB8B104662
:100EB000194603F087FCFA7B1D4BF98B23F81210BF
:100EC00000BFFB7B9B000133DB0003F580731846FA
:100ED000402103F009FA00BFFB7B9B000133DB00DC
:100EE00003F58073184603F0ABF90346002BF3D1EA
:100EF000FA7BF97B0E4B33F81110FB8BCB1A99B2AE
:100F00000B4B23F81210FA7B094B33F81230002BED
:100F100008D0FB7BFA7B08498A5C42F00102D1B21F
:100F2000054AD154FB8B18462037BD4680BD00BF13
:100F300000010020FC0000201001002080B586B0D8
:100F400000AF4FF40010012103F05CF909200121EA
:100F500003F03AF9C023BB820323BB751C23FB7546
:100F600007F114030F48194600F000FF00233B81EE
:100F70004BF6FF737B81A023BB814FF48063FB8121
:100F80004FF480433B82084B7B603B1D074819466A
:100F900004F048FC0548012104F006FD1837BD4661
:100FA00080BD00BF000C0140A0860100005400403D
:100FB00080B582B000AF786013460A467A803B80E5
:100FC00000BF39484FF4003104F0DAFD0346002B2E
:100FD000F7D13548012104F007FD00BF32483349FD
:100FE00004F09EFD0346002BF8D02F48A0210022DC
:100FF00004F078FD00BF2C482D4904F091FD034614
:10100000002BF8D07B88DBB22748194604F04CFD52
:1010100000BF2548274904F083FD0346002BF8D084
:101020002148012104F0E0FC00BF1F481F4904F0E3
:1010300077FD0346002BF8D01B48A021012204F0C5
:1010400051FD00BF18481C4904F06AFD0346002BFF
:10105000F8D01EE03B88012B07D11348002104F093
:1010600003FD1148012104F0DFFC0F48134904F08F
:1010700057FD0346002B0CD00B4804F025FD03461A
:101080001A467B681A707B6801337B603B88013BA2
:101090003B803B88002BDDD10348012104F0E4FCB8
:1010A0000837BD4680BD00BF00540040010003006A
:1010B00082000700840007000200030040000300D4
:1010C00080B586B000AF0420012103F07DF84FF415
:1010D0008040012103F078F80423FB754FF480630E
:1010E000BB820323BB7507F114031548194600F0B2
:1010F0003DFE1823FB754FF40073BB820323BB75C1
:1011000007F114030E48194600F030FE4FF4E133A6
:101110007B6000233B820C23FB810023BB810023E7
:101120007B8100233B813B1D0648194603F08EFB63
:101130000448012103F044FC1837BD4680BD00BFC0
:10114000000801400038014080B582B000AF402067
:10115000012103F039F81023FB710123BB80032325
:10116000BB713B1D0848194600F000FE1023FB71BF
:101170000223BB800323BB713B1D0348194600F0CB
:10118000F5FD0837BD4680BD0018014080B582B02E
:1011900000AF0346FB71FB79002B04D10548012108
:1011A00000F0A0FE03E00348012100F0A9FE08378B
:1011B000BD4680BD0018014080B582B000AF034637
:1011C000FB71FB79002B04D10548022100F08AFE57
:1011D00003E00348022100F093FE0837BD4680BDBE
:1011E00000180140B0B584B004AF294802F0D8F827
:1011F000274B1B781946264B5B781A46244B9B7865
:101200002348C078054622480079044620484079A2
:101210000095019402901F4802F0BAFE1C4B9B7986
:1012200019461B4BDB791A46194B1B7A1848407A32
:101230000090194802F0ACFE154B9B7A1946144BEE
:10124000DB7A1A46124B1B7B1148407B00901348F7
:1012500002F09EFE0E4B9B7B19460D4BDB7B1A4624
:101260000B4B1B7C0A48407C00900D4802F090FE1E
:10127000074B9B7C1946064BDB7C1A46044B1B7DB7
:101280000348407D0090074802F082FEBD46B0BD95
:1012900020000020945C0008C45C0008E05C0008AA
:1012A000FC5C0008185D000880B483B000AF034602
:1012B0003960FB7197F90730002B0BDA0D49FB7988
:1012C00003F00F03043B3A68D2B21201D2B20B44CE
:1012D0001A7609E0084997F907303A68D2B2120144
:1012E000D2B20B4483F800230C37BD465DF8047B73
:1012F000704700BF00ED00E000E100E080B582B083
:1013000000AF78607B68B3F1807F01D3012311E0E7
:101310000A4B7A6822F07F42013A5A604FF0FF3060
:101320000F21FFF7C1FF054B00229A60034B0722F4
:101330001A60002318460837BD4680BD10E000E063
:1013400080B400AF044B1B685A1C034B1A60BD46A7
:101350005DF8047B704700BF3009002080B485B081
:1013600000AF78607B685A68064B1B68D31AFB6035
:10137000FB68DB0FDBB218461437BD465DF8047B13
:10138000704700BF3009002080B483B000AF7860A0
:101390003960054B1A683B681A447B685A600C3701
:1013A000BD465DF8047B70473009002080B483B0EF
:1013B00000AF786039603B684FF47A7202FB03F249
:1013C000044B1B681A447B685A600C37BD465DF8B5
:1013D000047B70473009002080B485B000AF78608E
:1013E0007B685A68064B1B68D31AFB60FB6823EACC
:1013F000E37318461437BD465DF8047B704700BFA1
:101400003009002080B483B000AF78607B68002290
:101410005A600C37BD465DF8047B704780B483B0DA
:1014200000AF78607B6800221A607B68064A5A60C9
:101430007B68064A9A607B68054ADA600C37BD46CD
:101440005DF8047B704700BF55140008A91400081C
:10145000ED14000880B584B000AFF860B9607A6020
:101460003B60FB681B689B000133DB0003F54073A6
:10147000184602F0E5FE0346172B11D1FB681B68E6
:10148000DBB2184603F0A0F80346002B08D0FB6837
:101490001B681846B9687A68FFF7FEF90346FFE74C
:1014A00018461037BD4680BD80B584B000AFF860E7
:1014B000B9607A603B60FB681B689B000133DB000E
:1014C00003F54073184602F0BBFE0346172B08D104
:1014D000FB681B681846B9687A68FFF7E3F80346AB
:1014E000FFE718461037BD4680BD00BF80B582B00B
:1014F00000AF78607B681B681846FFF75DF8083717
:10150000BD4680BD80B586B000AFF860B9607A6036
:10151000FB681B681846012143F239020023FEF7DD
:1015200009FEFB681B681846B9687A68FEF76EFF0B
:10153000042003F06FFF0A48FFF7E0FEFF233B752E
:1015400000237B750023BB750123FB7507F1140392
:10155000184603F0FFFE18461837BD4680BD00BF91
:101560004019010080B500AF154B154A126842F0D2
:1015700001021A60124A124B5968124B0B40536019
:101580000F4A0F4B1B6823F0847323F480331360DE
:101590000B4B0B4A126822F480221A60084B084A4F
:1015A000526822F4FE025A60054B4FF41F029A6003
:1015B00000F00CF8044B4FF000629A6080BD00BF51
:1015C000001002400000FFF800ED00E080B500AF21
:1015D00000F002F880BD00BF80B483B000AF0023EC
:1015E0007B6000233B603A4B394A126842F48032F8
:1015F0001A60374B1B6803F400333B607B68013390
:101600007B603B68002B03D17B68B3F5A06FF0D102
:101610002F4B1B6803F40033002B02D001233B60E7
:1016200001E000233B603B68012B4BD1294B294A49
:10163000126842F010021A60264B264A126822F005
:1016400003021A60234B234A126842F002021A6016
:101650001F4B1F4A52685A601D4B1D4A52685A6000
:101660001B4B1B4A526842F480625A60184B184A5E
:10167000526822F47C125A60154B154A526842F4A3
:10168000E8125A60124B124A126842F080721A60D5
:1016900000BF0F4B1B6803F00073002BF9D00C4BFD
:1016A0000B4A526822F003025A60094B084A5268FA
:1016B00042F002025A6000BF054B5B6803F00C0366
:1016C000082BF9D10C37BD465DF8047B704700BF8D
:1016D000001002400020024080B582B000AF114BE4
:1016E0007B60114B3B6007E03B681A1D3A607A68EB
:1016F000111D796012681A603A680C4B9A42F3D354
:101700000B480C494FF000028842B8BF40F8042B48
:10171000FFF6FAAFFFF726FF01F012F90837BD46D2
:1017200080BD00BF8C60000800000020FC0000208D
:10173000FC0000204409002080B400AFFEE700BF99
:1017400080B485B000AF786039600023FB603A68F0
:10175000134B1340002B03DA013B63F07F0301338B
:10176000FB723B68002B00DA7F33DB113B603B6888
:10177000002B03DDFB7A63F07F03FB72FB685A1CCE
:10178000FA607A681344FA7A1A703B68002BDEDC40
:10179000FB6818461437BD465DF8047B704700BFF0
:1017A0007F00008080B586B000AF7860396001238B
:1017B0007B6100233B613B6800221A604FF0FF33DE
:1017C000FB603B6901333B613B69042B03DD4FF058
:1017D000FF33FB601DE007F10B027B68104601211F
:1017E0009847F860FB68012B00D012E03B681A684C
:1017F000FB7A03F07F03796901FB03F31A443B682A
:101800001A607B69DB017B61FB7ADBB25BB2002B88
:10181000D4DB3B6918461837BD4680BD80B483B021
:1018200000AF78607B6801337B607B687F2B03DCD3
:101830007B6801337B6012E07B68B3F5804F03DA8D
:101840007B6802337B600AE07A68084B9A4203DCCB
:101850007B6803337B6002E07B6804337B607B68DA
:1018600018460C37BD465DF8047B7047FEFF1F002D
:1018700080B485B000AF786039600023FB600AE077
:101880000A4B1B68591C094A11601A787B681A7048
:10189000FB680133FB60FA683B689A42F0DB3B6807
:1018A00018461437BD465DF8047B704718010020C8
:1018B00080B582B000AF78603960064B7A681A60F4
:1018C00005483968FFF76EFF034618460837BD46DE
:1018D00080BD00BF180100207118000880B485B0D9
:1018E00000AF78607B681B68FB60FB681B781A029E
:1018F000FB6801331B781344BB607B681B689A1C30
:101900007B681A60BB6818461437BD465DF8047BD7
:10191000704700BF80B485B000AF78607B681B68FB
:101920001B78FB737B681B685A1C7B681A60FB7B07
:1019300018461437BD465DF8047B704780B483B009
:1019400000AF78600B46FB707B681B68FA781A70F2
:101950007B681B685A1C7B681A600C37BD465DF8B3
:10196000047B704780B483B000AF786039607B68D7
:101970001A683B68002B00DAFF331B12DBB21370CE
:101980007B681B685A1C7B681A607B681A68396818
:10199000094B0B40002B03DA013B63F0FF030133DB
:1019A000DBB213707B681B685A1C7B681A600C37AB
:1019B000BD465DF8047B7047FF00008080B584B0B1
:1019C00000AF78603960386804F034F90346FB6092
:1019D0007868F968FFF7C6FF7B681A68FB681046ED
:1019E00039681A4604F000F97B681A68FB681A44E3
:1019F0007B681A601037BD4680BD00BF80B584B0DB
:101A000000AFF860384680E80E007B68002B14DDDC
:101A10007B68F8681946FFF7A5FFFB681968BA6884
:101A20007B68084611461A4604F0DEF8FB681A681F
:101A30007B681A44FB681A600CE03B68002B05D0F9
:101A40003B68F8681946FFF7B9FF03E0F868002122
:101A5000FFF788FF1037BD4680BD00BF80B586B058
:101A600000AFF860B9607A6000237B617A68BB6878
:101A70001B68D31A012B1ADDB868FFF72FFF024647
:101A8000FB685A60BB681A68FB685B681A447B682D
:101A90009A420CD8BB681A68FB689A60BB681A68DF
:101AA000FB685B681A44BB681A6001237B61FB68B2
:101AB00000221A607B6918461837BD4680BD00BFFA
:101AC00080B586B000AF3B1D83E8070000237B6133
:101AD0007B68002B06D07B68184604F0ABF8034601
:101AE0007B6101E0BB687B617B6918461837BD46A6
:101AF00080BD00BF80B586B000AF7860396000233C
:101B00007B610023FB607B681B68002B0AD07B682D
:101B10001B683B617B681B68184604F08BF8034622
:101B20007B6105E07B689B683B617B685B687B61F0
:101B3000386804F07FF80346FB607A69FB689A42D4
:101B40000AD17B69386939681A4604F07BF8034684
:101B5000002B01D1012300E0002318461837BD46B1
:101B600080BD00BF80B584B000AF786039600223CB
:101B7000BB600023FB6012E0FA6813465B0013446D
:101B80009B003A68134493E80700FFF799FF034668
:101B90000333BA681344BB60FB680133FB60FA6827
:101BA0007B689A42E8DBBB6818461037BD4680BDAB
:101BB00090B58BB000AFF860B960FA71BB80FB687C
:101BC000BB6100237B610023FB6100237B62002358
:101BD0003B62B86BF96BFFF7C5FFF861F869FFF777
:101BE0001DFE0246BB689A4203DD6FF001037B6273
:101BF00052E000233B753B7D082262F307133B75DF
:101C0000FB7903F00103DAB23B7D62F3C3033B755A
:101C10003B7D012262F342033B753B7D07F11802D5
:101C200010461946FFF78AFEBC69BB691846F96978
:101C3000FFF786FD03462344BB61BB8807F118020A
:101C400010461946FFF78EFE00233B621BE03A6AFE
:101C500013465B0013449B00FA6B134407F1180210
:101C600010460ECBFFF7CAFE3B6A9B003A6C13444A
:101C70001B68DBB207F1180210461946FFF75EFE3B
:101C80003B6A01333B623A6ABB6B9A42DFDBBB695A
:101C90001A46FB68D31A7B627B6A18462C37BD460E
:101CA00090BD00BF90B58BB000AFF860B9607A60AE
:101CB0003B600023FB61BB6BBB6100233B620023E5
:101CC0007B6207F118031846FFF724FE03463B77B3
:101CD0003B7FC3F30313DBB2092B00D040E0BC69A8
:101CE000BA6907F1140310461946FFF7E1FD78625F
:101CF0007B6A2344BB61BA697B6913443B623A6ADD
:101D0000BB69D31A012B00DC2AE007F1180318463F
:101D1000FFF7E4FD03469AB2FB681A807B68002255
:101D20001A6017E07B681A68BB689A4203DD4FF0BF
:101D3000FF337B6214E07B681B68591C7A68116072
:101D40009B003A68D41807F118031846FFF7E2FD24
:101D500003462360BA693B6A9A42E3D301237B625C
:101D60007B6A18462C37BD4690BD00BF80B489B051
:101D700000AF786039600023FB6100233B610023E2
:101D8000BB610023FB6000237B610023BB603B68D9
:101D9000DB7803F00F03FB613B68DB7803F0100393
:101DA000002B04D03B689B78FA691343FB613B68C6
:101DB0001B88DBB2002B44D07B681B687B6100234F
:101DC000BB6138E0BB69012202FA03F3FB603B68A8
:101DD0001B881A46FB6813403B613A69FB689A42CC
:101DE00026D1BB699B00FB60FB680F2202FA03F35C
:101DF000BB60BB68DB437A6913407B61FB68FA69AF
:101E000002FA03F37A6913437B613B68DB78282B82
:101E100005D1BB6901229A407B685A6108E03B68A2
:101E2000DB78482B04D1BB6901229A407B681A6198
:101E3000BB690133BB61BB69072BC3D97B687A6976
:101E40001A603B681B88FF2B46D97B685B687B6107
:101E50000023BB613AE0BB690833012202FA03F3B5
:101E6000FB603B681B881A46FB6813403B613A697C
:101E7000FB689A4227D1BB699B00FB60FB680F227D
:101E800002FA03F3BB60BB68DB437A6913407B61F2
:101E9000FB68FA6902FA03F37A6913437B613B68D2
:101EA000DB78282B05D1BB69083301229A407B6877
:101EB0005A613B68DB78482B05D1BB6908330122A6
:101EC0009A407B681A61BB690133BB61BB69072B10
:101ED000C1D97B687A695A602437BD465DF8047BB6
:101EE000704700BF80B483B000AF78600B467B8042
:101EF0007A887B681A610C37BD465DF8047B7047B1
:101F000080B483B000AF78600B467B807A887B68B2
:101F10005A610C37BD465DF8047B704780B485B0CC
:101F200000AFF860B9607A60FB68BA685A60FB6815
:101F30007A681A601437BD465DF8047B704700BFAD
:101F400080B483B000AF78607B681A684FF6FF7387
:101F50009A4203D07B681B68013300E001237A6852
:101F600013607B681B6818460C37BD465DF8047B20
:101F7000704700BFF0B587B000AFF860B9607A6015
:101F80004FF0FF337B6100233B6119E0FB681B6D61
:101F90009C68FB681E6DFB681A693B69D5187868F8
:101FA000FFF71AFA034630462946BA68A047786117
:101FB0007B69002B00DA0DE03A697B6913443B61D1
:101FC0003A69BB689A4205DA7868FFF7C7F90346B1
:101FD000002BDBD03A69BB689A420BD1FB6803F156
:101FE0005402FB689B6910461946FFF7DFF900238E
:101FF0007B6102E04FF0FF337B617B6918461C3741
:10200000BD46F0BD80B586B000AFF860B9607A60BB
:102010003B60FB68BA681A6500237B6109E0FA68D7
:102020007B690433DB00134400225A607B6901336F
:102030007B617B69042BF2DDFB687A685A60FB6880
:102040003A681A61FB683A6A9A60FB687A6A5A6170
:10205000FB68BA6ADA60FB6800221A62FB68002239
:102060001A77FB680022DA64FB6854331846FFF7DE
:10207000C9F91837BD4680BD90B58BB000AFF86088
:10208000B9607A6001237B6200233B620423FB6119
:10209000BB6800221A604FF0FF33BB613B6A01331B
:1020A0003B623A6AFB699A4203DD4FF0FF33BB6142
:1020B00023E0FB681B6D5C68FB681A6D07F1170372
:1020C0001046194601227B68A047B861BB69012B05
:1020D00000D012E0BB681A68FB7D03F07F03796AC9
:1020E00001FB03F31A44BB681A607B6ADB017B6265
:1020F000FB7DDBB25BB2002BCDDB3B6A18462C3795
:10210000BD4690BD2DE9F04186B000AF78603960E2
:102110004FF0FF337B610023FB6000233B61002312
:10212000BB607B681B6D5C687B681E6D7B685D694E
:102130003868FFF751F90346304629460122A04787
:102140000346012B00D03CE001233B613868FFF7D8
:1021500043F9034607F10802786811461A46FFF76B
:102160008BFF7B685B695A1CBB6810461946FFF7FA
:10217000E7FA03463A6913443B61BB68002B17DD5D
:102180007B681B6D5C687B68D3F850807B685A69FC
:102190003B69D618BD683868FFF71EF9034640460C
:1021A00031462A46A0470246BB689A4200D008E062
:1021B0007B685B691B783B733B7BC3F30313DBB228
:1021C0007B617B6918461837BD46BDE8F08100BFCA
:1021D00080B487B000AF786039607B687B613B6812
:1021E0009B683B613B685B683A691344BB603BE0BA
:1021F0003B691B782F2B04D17B691B782F2B00D0D8
:102200003AE07B691B782B2B0AD07B691B78232B48
:1022100006D07B691A783B691B789A4200D02BE084
:102220007B691B782B2B12D13B690133FB6005E0E6
:102230003B6901333B613B690133FB60FA68BB6872
:102240009A4203D2FB681B782F2BF1D106E07B6901
:102250001B78232B02D1BB68013B3B617B690133B7
:102260007B613B6901333B617B691B78002B03D0A9
:102270003A69BB689A42BBD33A69BB689A4205D1B6
:102280007B691B78002B01D1012300E00023DBB226
:1022900018461C37BD465DF8047B704780B58AB090
:1022A00000AFF860B9607A604FF0FF333B62002303
:1022B0007B623FE0FA687B6A0433DB0013445B68AF
:1022C000002B34D0FA687B6A0433DB0013445B686C
:1022D000B8681946FFF70EFC0346002B0CD1FA68CC
:1022E0007B6A0433DB0013445B681846B968FFF768
:1022F0006FFF0346002B1AD0FA687B6A0433DB00B9
:1023000013449B68002B12D007F118031846B968D4
:102310007A68FFF703FEFA687B6A0433DB00134434
:102320009B6807F118021046984700233B627B6ABE
:1023300001337B627B6A042BBCDD3B6AB3F1FF3F58
:1023400012D1FB68DB6C002B0ED007F1100318468E
:10235000B9687A68FFF7E2FDFB68DB6C07F11002F1
:102360001046984700233B623B6A18462837BD4613
:1023700080BD00BF80B586B000AF78604FF0FF33FE
:102380007B617B689B69002B02D100237B6131E07C
:102390007B6854331846FEF7E1FF0346002B29D033
:1023A0007B681B7F002B25D107F108031846FFF738
:1023B00029F807F1080318464FF47A71FEF7E4FF95
:1023C0007B681A697B689B681046194601F008FA19
:1023D00038613B69002B0DDD07F108037868396926
:1023E0001A46FFF7C7FD78617B69002B02D17B6835
:1023F00001221A777B6918461837BD4680BD00BF99
:10240000F0B595B006AF7860396078683968FFF745
:1024100079FE0346FB8500237B6300233B63FB8D32
:10242000023B0B2B00F2BD8001A252F823F000BF4B
:10243000A325000861240008A3250008272500081B
:10244000A3250008A3250008A3250008A32500084C
:10245000A3250008A3250008A32500089B25000844
:102460007B685D697B68DB681C4607F11003981C7C
:1024700007F1100107F110035A1C07F11003043390
:1024800007F12006009607F110060836019607F1BD
:1024900010060C3602960395049401F0B1F9034638
:1024A000012B00D080E007F1200207F110037868CB
:1024B00011461A46FFF7F2FE3B7C002B71D03B7CA5
:1024C000012B0DD17B681A697B689B68B98A0091E2
:1024D000104619460422002302F0C0FA78630FE088
:1024E0003B7C022B0CD17B681A697B689B68B98A9C
:1024F0000091104619460522002302F0AFFA7863D6
:102500007B6B002B03DC4FF0FF333B6305E0786807
:10251000796B3A68FFF72EFD38633B6BB3F1FF3FF1
:102520003FD100BF40E07B685B697A68D26814469F
:1025300007F10C0007F10D0107F10E02009401F004
:10254000CFF90346012B03D04FF0FF333B631FE06D
:102550007B681A697B689B68F98900911046194667
:102560000622002302F07AFA78637B6B002B03DCEF
:102570004FF0FF333B630BE07868796B3A68FFF705
:10258000F9FC38633B6B002B02D04FF0FF333B6309
:102590003B6BB3F1FF3F04D106E07B6800221A7762
:1025A00000BF7868FFF7E6FE3B6B002B01D1FB8D87
:1025B0003B633B6B18463C37BD46F0BD80B586B0EB
:1025C00000AF7860396000237B6107F10C03184687
:1025D000FEF718FF3B6807F10C0210461946FEF79C
:1025E000D3FE0DE007F10C0378681946FFF708FFEA
:1025F0000346B3F1FF3F03D14FF0FF337B6107E0A8
:1026000007F10C031846FEF7A9FE0346002BE9D09C
:102610007B6918461837BD4680BD00BF80B586B0BF
:1026200000AFF860B9607A604FF0FF337B61786883
:10263000FEF794FE0346002B00D008E0F8687968A6
:10264000FFF7DEFE78617A69BB689A42EFD17B6959
:1026500018461837BD4680BD80B59EB000AF786083
:1026600039604FF0FF337B673D4B07F110011A468D
:102670005823084611461A4603F0B6FA00233B6772
:1026800007F168031846FEF7BDFE7B685B6807F13B
:10269000680210461946FEF777FE7B681B6A002B1E
:1026A00000D052E03B68002B02D107F110033B60E1
:1026B0003B681B8B1A467B689A617B6803F1540266
:1026C0007B689B6910461946FEF770FE7B681A69A5
:1026D0007B689B68104619463A6800F001FF38672E
:1026E0003B6F002B00DC30E007F168037868396F3E
:1026F0001A46FFF73FFC78677B6F002B00D024E081
:1027000007F16803786802211A46FFF787FF03463E
:10271000022B17D1FF23FB730023BB737B685A691D
:102720007B68DB6807F10E0007F10F0100F0CAFFBC
:102730000346012B02D1FB7B7B6706E04FF0FF33A2
:102740007B6702E04FF0FF337B677B6F002B02D18A
:102750007B6801221A627B6F18467837BD4680BDC0
:10276000345D0008B0B594B004AFF860B9603B6068
:102770001346FB714FF0FF33FB6300237B630023A1
:102780003B6200237B620023BB62BB683B6207F1B4
:102790002C031846FEF736FEFB685B6807F12C0237
:1027A00010461946FEF7F0FDFB681B6A002B00D1AE
:1027B00074E0FB681D69FB689B681C46F868FFF7BE
:1027C000BFFB03469BB20122009207F12002019257
:1027D000FA1D0292284621460022FFF7E9F97863A4
:1027E0007B6B002B00DC59E007F12C03F868796B58
:1027F0001A46FFF7BFFBF863FB6B002B00D04DE0E0
:1028000007F12C03F86809211A46FFF707FF034672
:10281000092B40D10023FB614FF0FF33BB61FB6804
:102820005C69FB68DB68184607F1160107F11C02BA
:1028300007F118030094019008460121FFF732FACE
:102840000346012B01D1BB69FB63FB6B802B21D0BD
:102850000023BB631BE0FA68BB6B0433DB0013444B
:102860005B68002B10D1FA68BB6B0433DB001344A8
:10287000BA685A60FA68BB6B0433DB0013443A68E9
:102880009A600023FB6305E0BB6B0133BB63BB6B4A
:10289000042BE0DD02E04FF0FF33FB63FB6B1846D7
:1028A0004037BD46B0BD00BF80B59CB000AF78607A
:1028B0007B681B68FB661D4B1B6A002B19D0FB6EE7
:1028C0009A68FB6EDB6807F10801084611461A4654
:1028D00003F08AF9FB6EDB68013307F10802134449
:1028E000134AD2B21A7007F108031248194601F0D0
:1028F0004FFB0E4B5B68002B0AD0FB6EDB681A4661
:10290000FB6E9B680C4811461A4601F041FB09E03A
:10291000FB6EDB681946FB6E9A68044B9B680748A0
:1029200001F036FB7037BD4680BD00BF3800002087
:10293000A05D0008CC5D0008D45D0008DC5D0008E7
:1029400080B5D2B004AF0023C7F83031FEF7B8FB32
:10295000684801F01DFBFEF7F1FA674801F018FB2B
:102960006648FA210622FEF723FB654801F010FBBA
:102970000023C7F834310DE0604AD7F834311344EE
:102980001B786048194601F003FBD7F83431013356
:10299000C7F83431D7F83431052BEDDD5A4801F052
:1029A000F7FAFEF7D1FB002387F82F3197F82F3184
:1029B00087F82E3197F82F311846FEF7FDFB97F870
:1029C0002E311846FEF7E2FB02F040FD4F4801F0C1
:1029D000DFFA02F0C7FD4E4801F0DAFA4D4800F088
:1029E000A1FC4FF410604549062201F03BFDFEF7C3
:1029F000F9FB0023C7F8B8300120474902F0D0FBAB
:102A000000BF46484649474A02F0E6FB0346002B12
:102A1000F7D007F1B8031846FEF700FD424B1B68DC
:102A200007F1B80210463F491A46FEF76BFD07F161
:102A30005C0107F1B80207F1C80364200090364832
:102A400001904FF400600290084611464FF47A72EC
:102A5000FFF7D8FA3A1D354B11461A465823084657
:102A600011461A4603F0C0F83B1D0022DA763B1DE2
:102A700003221A722E4B1A683B1DDA602C4B1A691E
:102A80003B1D1A642A4B5A693B1DDA643B1D3C22EC
:102A90001A833B1D01229A7607F15C023B1D10460A
:102AA0001946FFF7D9FDC7F830012248D7F8301191
:102AB00001F06EFA1E4B01221A621F481F4901F0F5
:102AC00067FA1B4B1B7B07F15C0210461B491A4639
:102AD0001B4BFFF747FEC7F830011A48D7F83011F3
:102AE00001F056FA07F15C0318464FF47A71FFF7CC
:102AF00065FDF7E7E45D0008FC5D00081C010020AF
:102B0000105E0008205E0008285E00082C5E0008A9
:102B1000545E000820000020240100203200002024
:102B20000C0000200400002008000020B05E000817
:102B3000380000206C5E00087C5E0008905E000893
:102B4000A9280008A05E000880B400AFBD465DF86B
:102B5000047B704780B400AFBD465DF8047B7047CE
:102B600080B400AFBD465DF8047B704780B400AF11
:102B7000BD465DF8047B704780B483B000AF7860D9
:102B80007B681B78DBB218460C37BD465DF8047BCA
:102B9000704700BF80B483B000AF78600B46FB7015
:102BA0007B68FA781A700C37BD465DF8047B704775
:102BB00080B400AF00231846BD465DF8047B704723
:102BC00080B483B000AF0346FB710C37BD465DF89F
:102BD000047B704780B483B000AF786039607B6855
:102BE000002B02D03B68002B06D1094B094A1A6121
:102BF000074B094A5A6105E0054B7A681A61044B94
:102C00003A685A610C37BD465DF8047B704700BFD7
:102C10005C000020612B00086D2B000880B483B09D
:102C200000AF7860396000BF0E4B1B8803F400735F
:102C3000002BF9D07B68002B02D03B68002B06D11B
:102C4000084B094A9A61074B084ADA6105E0054BCF
:102C50007A689A61034B3A68DA610C37BD465DF8D1
:102C6000047B70475C000020B12B0008C12B0008DA
:102C700090B587B000AF03463960FB710023FB7548
:102C80000023FB6000233B61FB790F2B00F2BE8029
:102C900001A252F823F000BFD92C0008DF2C000855
:102CA0000B2D0008FF2C0008192D0008252D000809
:102CB000332D0008592D00087B2D0008B52D000884
:102CC000BB2D0008C32D0008112E0008CB2D0008D5
:102CD000D92D0008F32D000800F0A4F899E03B6816
:102CE000002B04D03B68FB60FB6808333B61FA684B
:102CF0003B691046194600F0E1F803468AE03B685C
:102D00001B88184600F05CF983E000F077F9034671
:102D10001A463B681A807CE03B681B88184600F026
:102D200093F976E000F0AAF903461A463B681A8048
:102D30006FE03B681B881B0A9BB2DBB24FF49850D4
:102D4000194601F0D1FA3B681B88DBB24FF4A05062
:102D5000194601F0C9FA5CE04FF4985001F070FA9E
:102D600003461B029CB24FF4A05001F069FA0346DF
:102D700023449AB23B681A804BE0294B9A783B680F
:102D80001A703B680133264AD2781A703B680233C6
:102D9000234A12791A703B680333214A52791A7018
:102DA0003B6804331E4A92791A703B68053300224F
:102DB0001A702EE000F0B8F92BE0386800F0DAF96C
:102DC00027E0386800F018FA23E03B681B781846C3
:102DD00000F05EFA03461DE000F08CF90346FB7537
:102DE000FB7DFF2B01D1FF2314E03B68FA7D1A70B5
:102DF0000FE000F067F90346FB75FB7DFF2B01D167
:102E0000FF2307E03B68FA7D1A7002E0FF2301E030
:102E100000BF00235BB218461C37BD4690BD00BF03
:102E20005C00002080B586B000AF3B1D4FF4106001
:102E30001946062201F0AEFA07F114034FF4807030
:102E40001946042201F0A6FA07F110034FF4A0601E
:102E50001946042201F09EFA07F10C034FF470604A
:102E60001946042201F096FA0020802101F03CFA74
:102E7000002001F0E5F93B1D4FF4106019460622D1
:102E800001F0F0FA07F114034FF4807019460422A0
:102E900001F0E8FA07F110034FF4A060194604228C
:102EA00001F0E0FA07F10C034FF4706019460422B8
:102EB00001F0D8FA1837BD4680BD00BF80B584B098
:102EC00000AF786039600023BB73FFF7ABFF7B680E
:102ED000002B35D00023BB730023FB730BE097F965
:102EE0000F307A6813441A78BB7B1344DBB2BB7390
:102EF000FB7B0133FB7397F90F30072BEFDD97F95D
:102F00000E30102B01DDFF2354E00023FB7313E090
:102F100097F90F309B000133DB0003F5F8531A4695
:102F200097F90F3079680B441B781046194601F069
:102F3000DBF9FB7B0133FB7397F90F30072BE7DDE0
:102F40003B68002B35D00023BB730023FB730BE0E1
:102F500097F90F303A6813441A78BB7B1344DBB2FD
:102F6000BB73FB7B0133FB7397F90F30072BEFDD4E
:102F700097F90E30102B01DDFF231BE00023FB73BC
:102F800013E097F90F309B000133DB0003F5F0539A
:102F90001A4697F90F3039680B441B7810461946CA
:102FA00001F0A2F9FB7B0133FB7397F90F30072B7C
:102FB000E7DD00235BB218461037BD4680BD00BF79
:102FC00080B584B000AF0346FB80FB88FB73FB88B1
:102FD0001B0A9BB2BB73FB7B23F00F03DBB24FF4E6
:102FE000A850194601F080F9BB7B4FF4B850194640
:102FF00001F07AF91037BD4680BD00BF80B582B0C0
:1030000000AF0023FB710023BB710023BB804FF492
:10301000A85001F015F9034623F00F03FB714FF49C
:10302000B85001F00DF90346BB71BB79BB80BB887A
:103030001B029AB2FB799BB21344BB80BB88184633
:103040000837BD4680BD00BF80B584B000AF0346E1
:10305000FB80FB88FB73FB881B0A9BB2BB73FB7B6B
:103060004FF4B050194601F03FF9BB7B4FF4C0500C
:10307000194601F039F91037BD4680BD80B582B0E0
:1030800000AF0023FB710023BB710023BB804FF412
:10309000B05001F0D5F80346FB714FF4C05001F079
:1030A000CFF80346BB71BB79BB80BB881B029AB2C9
:1030B000FB799BB21344BB80BB8818460837BD46DA
:1030C00080BD00BF80B582B000AF4FF4385001F032
:1030D000B7F8034603F00103002B02D00123FB7174
:1030E00001E00023FB71FB795BB218460837BD464F
:1030F00080BD00BF80B582B000AF0023FB714FF4EC
:10310000385001F09DF8034603F03003002B02D045
:103110000123FB7101E00023FB71FB795BB21846D0
:103120000837BD4680BD00BF80B582B000AF4FF408
:10313000385001F085F80346FB71FB7903F07F03FB
:10314000FB71FB794FF43850194601F0CDF84FF47C
:10315000385001F075F80346FB71FB7963F07F038B
:10316000FB71FB794FF43850194601F0BDF8083770
:10317000BD4680BD80B584B000AF78600023FB738E
:103180007B681B78012B04D1FB7B43F04003FB736E
:1031900003E0FB7B23F04003FB737B685B78012B30
:1031A00004D1FB7B43F03803FB7319E07B68DB78C9
:1031B000012B0DD17B689B78012B04D1FB7B43F065
:1031C0001803FB730CE0FB7B43F00803FB7307E081
:1031D0007B689B78012B03D1FB7B43F01003FB73CF
:1031E000FB7B4FF43850194601F07EF8FFF79CFF47
:1031F0001037BD4680BD00BF80B584B000AF786099
:103200000023FB734FF4385001F01AF80346FB73A8
:10321000FB7B03F04003002B0CBF00230123DBB238
:103220001A467B681A70FB7B03F03803202B01D011
:10323000382B03D17B6801225A7003E07B6800229F
:103240005A7000BFFB7B03F03803182B03D0202BF0
:1032500001D0102B03D17B6801229A7003E07B68B8
:1032600000229A7000BFFB7B03F03803182B03D0B9
:10327000202B01D0082B03D17B680122DA7003E0F8
:103280007B680022DA7000BF1037BD4680BD00BFEA
:1032900080B584B000AF0346FB710023FB734FF48D
:1032A000385000F0CDFF0346FB73FB7B03F0400377
:1032B000002B01D1FF232FE0FB7B23F03803FB73AE
:1032C000FB79012B04D1FB7B43F03003FB7303E05C
:1032D000FB7B43F03803FB73FB7B4FF438501946FC
:1032E00001F002F8FFF720FF4FF4385000F0A8FF7C
:1032F0000346FB73FB79012B06D1FB7B03F0300304
:10330000002B08D0002307E0FB7B03F03803002BE1
:1033100001D0002300E0FF235BB218461037BD4602
:1033200080BD00BF80B582B000AF78607B684FF48D
:1033300010601946062201F095F87B680E334FF4B1
:1033400080701946042201F08DF87B680A334FF42F
:10335000A0601946042201F085F87B6806334FF41B
:1033600070601946042201F07DF87B689A7C0A4B54
:103370001A707B68DA7C084B5A707B681A7D064BA2
:103380009A707B685A7D044BDA707B689A7D034B98
:103390001A700837BD4680BD240900202809002086
:1033A00080B582B000AF78607B684FF4106019463A
:1033B000062200F0EFFF7B680E334FF48070194651
:1033C000042200F0E7FF7B680A334FF4A06019463F
:1033D000042200F0DFFF7B6806334FF4706019466B
:1033E000042200F0D7FF0B4B1A787B689A74094BC4
:1033F0005A787B68DA74074B9A787B681A75054BA4
:10340000DA787B685A75044B1A787B689A750837A6
:10341000BD4680BD240900202809002090B585B054
:1034200000AF78600023FB607B681B7A032B02D11E
:103430000C23FB6005E07B681B7A042B01D10A2377
:10344000FB607B680C3393E80700FEF739FB03460B
:103450000233FA681344FB607B68DB7E002B13D0D9
:103460007B68243393E80700FEF72AFB03469C1C85
:103470007B68303393E80700FEF722FB03462344C2
:103480000233FA681344FB607B681B6C002B03D18A
:103490007B689B6C002B0AD07B68403393E8070065
:1034A000FEF70EFB03460233FA681344FB607B68A9
:1034B000DB6C002B03D17B685B6D002B0AD07B6833
:1034C0004C3393E80700FEF7FBFA03460233FA6831
:1034D0001344FB60FB6818461437BD4690BD00BF1F
:1034E00090B58BB000AFF860B9607A60FB68FB61A3
:1034F0000023BB6100237B6100233B624FF0FF335D
:103500007B627868FFF78AFF3862386AFEF786F9CF
:103510000246BB689A4203DD6FF001037B62C7E09D
:1035200000233B763B7E012262F307133B763B7E12
:1035300007F11C0210461946FEF700FAFC69FB6908
:103540001846396AFEF7FCF803462344FB617B68A2
:103550001B7A042B0CD107F11C0318465749FEF7C0
:103560002DFA07F11C0318460421FEF7E7F90BE0DA
:1035700007F11C0318465249FEF720FA07F11C0315
:1035800018460321FEF7DAF900233B757B689B7E22
:1035900003F00103DAB23B7D62F341033B757B68C4
:1035A000DB7E002B0CBF00230123DAB23B7D62F3EC
:1035B00082033B753B7DC3F38003DBB2002B13D04A
:1035C0007B6893F83D3003F00303DAB23B7D62F38E
:1035D000C4033B757B6893F83C3003F00103DAB217
:1035E0003B7D62F345133B757B681B6C002B03D15D
:1035F0007B689B6C002B03D03B7D43F080033B75C5
:103600007B68DB6C002B03D17B685B6D002B03D0E8
:103610003B7D43F040033B753B7D07F11C021046A8
:103620001946FEF78BF97B681B8B07F11C021046CD
:103630001946FEF797F907F11C027B6810460C3318
:103640000ECBFEF7DBF97B68DB7E002B0FD007F19A
:103650001C027B68104624330ECBFEF7CFF907F12E
:103660001C027B68104630330ECBFEF7C7F93B7D5A
:10367000C3F3C013DBB2002B07D007F11C027B6839
:10368000104640330ECBFEF7B9F93B7DC3F38013F0
:10369000DBB2002B07D007F11C027B6810464C33CD
:1036A0000ECBFEF7ABF9FB691A46FB68D31A7B62B7
:1036B0007B6A18462C37BD4690BD00BF085F0008E6
:1036C000105F000890B58BB000AFF860B9607A6009
:1036D0003B600023FB617B68BB6100233B620023EE
:1036E0007B6200233B6107F118031846FEF712F9CD
:1036F00003463B773B7FC3F30313DBB2022B00D0BF
:103700002EE0BC69BA6907F1140310461946FEF7AA
:10371000CFF878627B6A2344BB61BA697B69134442
:103720003B623A6ABB69D31A012B00DC18E007F14F
:1037300018031846FEF7EEF803463B743B7CC3F3D0
:10374000C013DBB21A46FB681A7007F1180318465B
:10375000FEF7E0F803461A46BB681A7001237B6245
:103760007B6A18462C37BD4690BD00BF90B589B026
:1037700000AFF860B9601346FB710023BB614FF0E6
:10378000FF33FB61FB687B61BB68012B03DC6FF0DF
:103790000103FB611EE000233B76FB7903F00F037E
:1037A000DAB23B7E62F307133B763B7E07F11402ED
:1037B00010461946FEF7C2F87C697B69184600215D
:1037C000FDF7BEFF034623447B617B691A46FB6815
:1037D000D31AFB61FB6918462437BD4690BD00BF74
:1037E00080B582B000AF78603960786839680C22A3
:1037F000FFF7BCFF034618460837BD4680BD00BF33
:1038000090B58BB000AFF860B9607A603B60002380
:10381000FB617B6CBB6100233B6200237B62002366
:103820007B6107F118031846FEF774F803463B77EF
:103830003B7FC3F30313DBB2032B00D04AE03B7F93
:10384000C3F3C003DBB21A46FB681A703B7FC3F3B5
:103850004103DBB21A46BB681A603B7FC3F3000327
:10386000DBB21A467B681A70BC69BA6907F11403A7
:1038700010461946FEF71CF878627B6A2344BB6148
:10388000BA697B6913443B6207F11803B86B1946A8
:103890003A6AFEF7E3F80346002B1BD03A6ABB698D
:1038A000D31A002B16DBBB681B68002B08DD07F161
:1038B00018031846FEF712F803469AB23B681A80BE
:1038C0003A6ABB69D21A3B6C1A60BA69FB6B1A6020
:1038D00001237B627B6A18462C37BD4690BD00BF32
:1038E00090B58BB000AFF860B9607A603B600023A0
:1038F000FB613B68BB6100233B6200237B6207F1F5
:1039000018031846FEF706F803463B773B7FC3F3E0
:10391000C003DBB21A46BB681A703B7FC3F30313C4
:10392000DBB21A46FB681A70BC69BA6907F1140366
:1039300010461946FDF7BCFF78627B6A2344BB61E1
:10394000BA697B6913443B623A6ABB69D31A012B9B
:1039500000DC0AE007F118031846FDF7BFFF034635
:103960009AB27B681A8001237B627B6A18462C37E7
:10397000BD4690BD80B582B000AF0346FB71FB79B8
:103980009BB20748194601F03BF800BF044880216C
:1039900001F048F80346002BF8D00837BD4680BD3B
:1039A0000038014080B483B000AF78600B46FB70F4
:1039B0007B68FA781A70012318460C37BD465DF80B
:1039C000047B704780B485B000AF78603960002315
:1039D000FB600AE07B685A1C7A603A68511C3960C7
:1039E00012781A70FB680133FB603B681B78002B70
:1039F000F0D1FB6818461437BD465DF8047B70476C
:103A000080B586B000AFF8607A603B600B46FB7211
:103A100000237B617B68013B7B603B68092B10D9ED
:103A20003A681E4BA3FB0213DB08FA7AF8681146CA
:103A30007A68FFF7E5FF78617B69FA681344FB60F9
:103A400011E00DE0FB7AF8681946FFF7ABFFFB6861
:103A50000133FB607B6901337B617B68013B7B60E9
:103A60007B68002BEEDC39680C4BA3FB0123DA08E2
:103A700013469B0013445B00CA1AD3B23033DBB247
:103A8000F8681946FFF78EFF03467A6913447B6195
:103A90007B6918461837BD4680BD00BFCDCCCCCC65
:103AA00080B586B000AFF8607A603B600B46FB7271
:103AB00000237B613B68002B03DA3B685B423B6180
:103AC00001E03B683B617B68013B7B603B69092B04
:103AD00021D93B68002B0DDA3A692F4BA3FB021367
:103AE000DB085B42FA7AF86811467A68FFF7D8FF7C
:103AF00078610BE03A69284BA3FB0213DB08FA7AE2
:103B0000F86811467A68FFF7CBFF78617B69FA683D
:103B10001344FB6026E03B68002B03DA7B68013B23
:103B20007B600EE00DE0FB7AF8681946FFF73AFF7C
:103B3000FB680133FB607B6901337B617B68013B80
:103B40007B607B68002BEEDC3B68002B0ADAF868B0
:103B50002D21FFF727FF03467A6913447B61FB6839
:103B60000133FB6039690C4BA3FB0123DA081346D0
:103B70009B0013445B00CA1AD3B23033DBB2F8683F
:103B80001946FFF70FFF03467A6913447B617B698F
:103B900018461837BD4680BDCDCCCCCC80B588B09A
:103BA00002AFF8607A600A46FA72BB7200237B614A
:103BB0007B68013B7B603B6A1B09002B12D03B6A90
:103BC0001909FA7ABB7A0091F86811467A68FFF70A
:103BD000E5FF03467A6913447B617B69FA68134405
:103BE000FB6011E00DE0FB7AF8681946FFF7DAFE9A
:103BF000FB680133FB607B6901337B617B68013BC0
:103C00007B607B68002BEEDC3B6A03F00F03092B23
:103C10000BD83B6ADBB203F00F03DBB23033DBB20D
:103C2000F8681946FFF7BEFE19E0BB7A002B0BD0EF
:103C30003B6ADBB203F00F03DBB23733DBB2F86869
:103C40001946FFF7AFFE0AE03B6ADBB203F00F0351
:103C5000DBB25733DBB2F8681946FFF7A3FE7B6986
:103C600001337B617B6918461837BD4680BD00BFB4
:103C700080B58AB002AFF860B9607A603B6000231B
:103C8000BB6100237B61FB68002B03D0FB68002233
:103C90001A70F8E0F7E07B681B78252B0BD0FB68E7
:103CA0005A1CFA607A68511C796012781A707B6924
:103CB00001337B61E7E07B6801331B78252B0BD157
:103CC000FB685A1CFA6025221A707B6802337B60FD
:103CD0007B6901337B61D6E02023FB770023BB7730
:103CE0007B6801337B607B681B78302B05D13023E8
:103CF000FB777B6801337B600FE00EE0BB7F1A46E9
:103D0000920013445B00DAB27B681B781344DBB289
:103D1000303BBB777B6801337B607B681B782F2B44
:103D200003D97B681B78392BE8D9BA7F7B691344A8
:103D30001A46BB689A4205D9BB68DAB27B69DBB226
:103D4000D31ABB777B681B78583B202B00F28D8001
:103D500001A252F823F000BF253E00086B3E000888
:103D60006B3E00086B3E00086B3E00086B3E00088F
:103D70006B3E00086B3E00086B3E00086B3E00087F
:103D80006B3E0008553E0008DD3D00086B3E000814
:103D90006B3E00086B3E00086B3E0008DD3D0008EE
:103DA0006B3E00086B3E00086B3E00086B3E00084F
:103DB0006B3E00086B3E00086B3E00086B3E00083F
:103DC0006B3E0008413E00086B3E0008F33D0008D2
:103DD0006B3E00086B3E0008093E0008BA7F3B6856
:103DE000191D39601B68F97FF868FFF759FEB86143
:103DF0003EE0BA7F3B68191D39601B68F97FF8689F
:103E0000FFF7FEFDB86133E0BA7F3B68191D3960EA
:103E10001968FB7F0091F86819460023FFF7BEFE82
:103E2000B86125E0BA7F3B68191D39601968FB7FCE
:103E30000091F86819460123FFF7B0FEB86117E05A
:103E40003B681A1D3A601B68F8681946FFF7BAFD0F
:103E5000B8610DE03B681A1D3A601B68DBB2F86878
:103E60001946FFF79FFDB86102E04FF0FF3325E0F0
:103E70007B6801337B60BB69FA681344FB607A6935
:103E8000BB6913447B617B681B78002B04D07A6983
:103E9000BB689A42FFF4FFAE7A69BB689A4203D2CC
:103EA000FB6800221A7008E0FB68013BFB60FB68BE
:103EB00000221A707B69013B7B617B6918462037C1
:103EC000BD4680BD80B584B000AFF860B9607A604F
:103ED000F8684FF49671BA687B68FFF7C9FE03462D
:103EE00018461037BD4680BDB0B5D8B000AF07F159
:103EF0000C03186007F1080319603B1D1A6007F1F5
:103F00001002174B14461D460FCD0FC40FCD0FC422
:103F10002B68236007F1340107F108023B1D0846B6
:103F200011681A68FFF7CEFF0346B3F5967F09DBE9
:103F30000C4B1B68DB6807F110021046194600F0B5
:103F40006DF8FEE707F1340207F10C03104619681B
:103F500000F064F80346184607F5B077BD46B0BDDB
:103F6000185F0008F800002080B582B000AF7860CC
:103F70003960064B1B689B68184679683A68FFF7FA
:103F8000B3FF034618460837BD4680BDF800002041
:103F90000FB480B582B000AF07F114033B603869FD
:103FA0003968FFF7E1FF78607B6818460837BD463F
:103FB000BDE8804004B0704780B582B000AF786043
:103FC000054B1B689B687868194600F027F8034684
:103FD00018460837BD4680BDF800002080B582B085
:103FE00000AF786039600C4B1B689A683B689A4256
:103FF00005D0094B1B68DA683B689A4206D17B689A
:10400000DBB21846FFF7B6FC7B6801E04FF0FF33E8
:1040100018460837BD4680BDF800002080B584B042
:1040200000AF786039600023FB6012E07B681B788A
:1040300018463968FFF7D2FF0346B3F1FF3F02D1BC
:104040004FF0FF330AE0FB680133FB607B6801330C
:104050007B607B681B78002BE8D1FB681846103723
:10406000BD4680BD80B487B000AF786000237B611F
:1040700000233B610023FB600023BB604D4B5B686A
:1040800003F00C037B617B69042B07D0082B09D05C
:10409000002B34D17B68484A1A6034E07B68464A7A
:1040A0001A6030E0434B5B6803F470133B61414B93
:1040B0005B6803F48033FB603B699B0C02333B611C
:1040C000FB68002B06D13B693C4A02FB03F27B688C
:1040D0001A6013E0374B5B6803F40033002B06D003
:1040E0003B69364A02FB03F27B681A6006E03B69D3
:1040F000314A02FB03F27B681A6004E003E07B684C
:104100002D4A1A6000BF2B4B5B6803F0F0037B6104
:104110007B691B097B612A4A7B6913441B78DBB2EC
:10412000BB607B681A68BB68DA407B685A60214BC9
:104130005B6803F4E0637B617B691B0A7B61204A57
:104140007B6913441B78DBB2BB607B685A68BB6831
:10415000DA407B689A60174B5B6803F460537B61BD
:104160007B69DB0A7B61164A7B6913441B78DBB2EF
:10417000BB607B685A68BB68DA407B68DA600D4BCD
:104180005B6803F440437B617B699B0B7B610D4A59
:104190007B6913441B78DBB2BB607B68DA68BB6861
:1041A000B2FBF3F27B681A611C37BD465DF8047BF5
:1041B000704700BF0010024000127A0000093D0065
:1041C000840000209400002080B483B000AF7860A9
:1041D0000B46FB70FB78002B06D0094B084A91690F
:1041E0007A680A439A6106E0054B054A91697A6844
:1041F000D2430A409A610C37BD465DF8047B704794
:104200000010024080B483B000AF78600B46FB70B2
:10421000FB78002B06D0094B084AD1697A680A431B
:10422000DA6106E0054B054AD1697A68D2430A4053
:10423000DA610C37BD465DF8047B70470010024020
:1042400080B584B000AF7860264B9B689847254BBB
:104250001B699847234B1B6A002B03D0214B5B6AD9
:10426000002B18D11F4BDB697A6802F47F02120C15
:10427000D2B2104698471B4BDB697A6802F47F4242
:10428000120AD2B210469847164BDB697A68D2B24E
:104290001046984715E07B6803F47F031B0CDBB2E4
:1042A0003B737B6803F47F431B0ADBB27B737B6841
:1042B000DBB2BB730B4B5B6A07F10C0210460321A8
:1042C0009847084B9B6998470346FB73054B5B690E
:1042D0009847044BDB689847FB7B18461037BD4670
:1042E00080BD00BF5C00002080B584B000AF786066
:1042F0000B46FB70264B9B689847254B1B699847DC
:104300007B6843F004037B60214B5B6A002B1DD16B
:104310001F4BDB697A6802F47F02120CD2B210469E
:1043200098471B4BDB697A6802F47F42120AD2B2CB
:1043300010469847164BDB697A68D2B21046984708
:10434000134BDB69FA781046984717E07B6803F453
:104350007F031B0CDBB23B737B6803F47F431B0AB8
:10436000DBB27B737B68DBB2BB73FB78FB73084B00
:104370005B6A07F10C02104604219847044B5B6905
:104380009847034BDB6898471037BD4680BD00BF98
:104390005C00002090B587B000AFF860B9601346AC
:1043A000FB802F4B9B6898472D4B1B6998472C4BE4
:1043B0001B6A002B03D02A4B5B6A002B2AD1284BA7
:1043C000DB69FA6802F47F02120CD2B210469847F9
:1043D000234BDB69FA6802F47F42120AD2B210461C
:1043E00098471F4BDB69FA68D2B210469847002302
:1043F000FB820AE0FB8ABA68D418194B9B6998477C
:1044000003462370FB8A0133FB82FA8AFB889A42B7
:10441000F0D31BE0FB6803F47F031B0CDBB23B749F
:10442000FB6803F47F431B0ADBB27B74FB68DBB2DF
:10443000BB740B4B5B6A07F11002104603219847CF
:10444000074B1B6AFA88B86811469847044B5B69AA
:104450009847034BDB6898471C37BD4690BD00BFAB
:104460005C00002080B586B000AFF860B9601346EC
:10447000FB802F4B9B6898472D4B1B699847FB6827
:1044800043F00403FB602A4B5B6A002B2AD1284BC4
:10449000DB69FA6802F47F02120CD2B21046984728
:1044A000234BDB69FA6802F47F42120AD2B210464B
:1044B00098471F4BDB69FA68D2B210469847002331
:1044C000FB820AE01A4BDB69FA8AB9680A4412785F
:1044D00010469847FB8A0133FB82FA8AFB889A428E
:1044E000F0D31BE0FB6803F47F031B0CDBB23B74CF
:1044F000FB6803F47F431B0ADBB27B74FB68DBB20F
:10450000BB740B4B5B6A07F11002104603219847FE
:10451000074B5B6AFA88B86811469847044B5B6999
:104520009847034BDB6898471837BD4680BD00BFEE
:104530005C00002090B585B000AF0346FB710023FE
:10454000FB810023BB81FB799B000133DB0003F57A
:1045500000531846FFF774FE0346BB81BB891B025C
:104560009CB2FB799B000133DB0003F50453184632
:10457000FFF766FE03462344BB81BB89002B19D09D
:10458000FB799B000133DB0003F500531846FFF76E
:1045900057FE0346FB81FB891B029CB2FB799B0003
:1045A0000133DB0003F504531846FFF749FE0346C9
:1045B0002344FB81FA89BB899A42C4D1FB891846FE
:1045C0001437BD4690BD00BF90B585B000AF03461F
:1045D000FB710023FB810023BB81FB799B0001332E
:1045E000DB0003F518531846FFF72AFE0346BB818C
:1045F000BB891B029CB2FB799B000133DB0003F5F6
:104600001C531846FFF71CFE03462344BB81BB899D
:10461000002B19D0FB799B000133DB0003F5185305
:104620001846FFF70DFE0346FB81FB891B029CB277
:10463000FB799B000133DB0003F51C531846FFF7A1
:10464000FFFD03462344FB81FA89BB899A42C4D10A
:10465000FB8918461437BD4690BD00BF90B585B0A4
:1046600000AF396013460246FA71BB800023FB811C
:104670000023BB60BB88002B00D145E0FB799B0089
:104680000133DB0003F510531846FFF7D9FD03464D
:104690001B029CB2FB799B000133DB0003F5145332
:1046A0001846FFF7CDFD03462344FB81FB891A0220
:1046B000FB799B000233DB001344BB60BB88B86806
:1046C00039681A46FFF7CEFEFA89BB881344FB818E
:1046D000FB799B000133DB0003F510531A46FB897D
:1046E0001B0A9BB2DBB210461946FFF7FDFDFB79B2
:1046F0009B000133DB0003F514531A46FB89DBB240
:1047000010461946FFF7F0FD1437BD4690BD00BFB7
:1047100090B585B000AF396013460246FA71BB8090
:104720000023FB810023BB60BB88002B00D145E048
:10473000FB799B000133DB0003F520531846FFF79C
:104740007FFD03461B029CB2FB799B000133DB001B
:1047500003F524531846FFF773FD03462344FB81FA
:10476000FB891A02FB799B000333DB001344BB6017
:10477000BB88B86839681A46FFF70CFEFA89BB880F
:104780001344FB81FB799B000133DB0003F52053CD
:104790001A46FB891B0A9BB2DBB210461946FFF78B
:1047A000A3FDFB799B000133DB0003F524531A467C
:1047B000FB89DBB210461946FFF796FD1437BD465C
:1047C00090BD00BF90B585B000AF02460B46FA71B0
:1047D000BB800023FB81FB799B000133DB0003F5E9
:1047E00020531846FFF72CFD03461B029CB2FB79B1
:1047F0009B000133DB0003F524531846FFF720FD2F
:1048000003462344FB81FA89BB881344FB81FB796F
:104810009B000133DB0003F520531A46FB891B0A7A
:104820009BB2DBB210461946FFF75EFDFB799B0099
:104830000133DB0003F524531A46FB89DBB2104633
:104840001946FFF751FD1437BD4690BD80B58CB0B9
:1048500000AF786039600023FB620023BB62002355
:104860007B6200233B620023FB617B68FB617B680A
:104870001B8A9BB2FB62FA6A4CF6FF731340FB6221
:104880003B68DB88FA6A1343FB62FB6A9AB27B6877
:104890001A827B689B899BB2FB62FA6A4EF6F3131D
:1048A0001340FB623B689A883B681B8913439AB2AA
:1048B0003B685B8913439BB2FA6A1343FB62FB6A52
:1048C0009AB27B689A817B689B8A9BB2FB62FA6A88
:1048D0004FF6FF431340FB623B689B89FA6A134320
:1048E000FB62FB6A9AB27B689A8207F1080318465A
:1048F000FFF7B8FBFA69304B9A4202D17B69BB6281
:1049000001E03B69BB627B689B899BB29BB21BB297
:10491000002B0CDABA6A13469B0013449A001A441F
:104920003B681B685B00B2FBF3F37B620BE0BA6A87
:1049300013469B0013449A001A443B681B689B0073
:10494000B2FBF3F37B627A6A1C4BA3FB02135B0995
:104950001B01FB62FB6A1B09642202FB03F37A6AF8
:10496000D31A3B627B689B899BB29BB21BB2002B24
:104970000DDA3B6ADB0003F13202104BA3FB02139A
:104980005B0903F00703FA6A1343FB620CE03B6A1E
:104990001B0103F13202094BA3FB02135B0903F075
:1049A0000F03FA6A1343FB62FB6A9AB27B681A81AF
:1049B0003037BD4680BD00BF003801401F85EB5138
:1049C00080B483B000AF78600B46FB70FB78002B9F
:1049D00008D07B689B899BB243F400539AB27B68F2
:1049E0009A8107E07B689B899BB223F400539AB2BB
:1049F0007B689A810C37BD465DF8047B704700BF29
:104A000080B483B000AF78600B467B807B88C3F3B3
:104A100008039AB27B689A800C37BD465DF8047B28
:104A2000704700BF80B485B000AF78600B467B80D4
:104A30000023FB737B681B889AB27B8813409BB270
:104A4000002B02D00123FB7301E00023FB73FB7BEF
:104A500018461437BD465DF8047B704790B589B0A1
:104A600000AFF860B960FA71BB710023BB6100232D
:104A7000FB61FB687B61BB68032B03DC6FF0010308
:104A8000FB6138E0FB7903F00F03DAB23B7E62F39F
:104A900007133B76BB7903F00103DAB23B7E62F386
:104AA000C3033B76FB79062B14BF00230123DBB243
:104AB00003F00303DAB23B7E62F342033B763B7EB4
:104AC00007F1140210461946FCF738FF7C697B6930
:104AD00018460221FCF734FE034623447B613B8EDB
:104AE00007F1140210461946FCF73CFF7B691A4691
:104AF000FB68D31AFB61FB6918462437BD4690BD9D
:104B000080B485B000AF78607B685A1C7A601B78EF
:104B10001B02FB817B681B781A46FB891344FB81CF
:104B2000FB8918461437BD465DF8047B704700BF0B
:104B300080B483B000AF78600B467B807B685A1CE2
:104B40007A607A88120A92B2D2B21A707B685A1CC2
:104B50007A607A88D2B21A707B6818460C37BD46E4
:104B60005DF8047B704700BF80B48BB000AFF86085
:104B7000B9607A607B800023FB610023BB61002366
:104B80007B61BB683B623B6A5A1C3A621B78FB84C0
:104B9000BB69002B02D1FB690133FB61FB8C03F085
:104BA000C003C02B16D1BB69002B02D1FB690133B6
:104BB000FB610123BB61FB8C03F03F031A023B6ADC
:104BC0001B781344FA6813443B623B6A5A1C3A62EE
:104BD0001B78FB84FB8C002B04D100BF7B69002B6E
:104BE00035D12CE07A88FB8CD31A9BB2013B9BB267
:104BF0007B80B7F90230002B02DA4FF0FF332FE051
:104C0000BB69002B04D1FB8CFA691344FB6108E0FB
:104C100007E07B685A1C7A603A6A511C3962127844
:104C20001A70FB8C5A1EFA84002BF2D17B685A1C36
:104C30007A602E221A707B6901337B61A3E77B685F
:104C40005A1C7A602E221A707B88013B7B807B681D
:104C50005A1C7A6000221A707B88013B7B80FB69BA
:104C600018462C37BD465DF8047B704780B590B080
:104C700000AF7860396007F10C03786839681A462C
:104C80002D23FFF771FFF863FB6BB3F1FF3F01D1F9
:104C900000230AE0FB6B3A6813443B603B68023335
:104CA0003B603B6802333B603B6818464037BD467B
:104CB00080BD00BF80B592B000AFF860B9607A6087
:104CC00007F11003F868B9681A462D23FFF74CFF67
:104CD00078647B6CB3F1FF3F01D10023CEE07B6CA5
:104CE000BA681344BB60B868FFF70AFF03463B6429
:104CF000BB680233BB60BB680233BB60BB68043374
:104D0000BB60BB680233BB603B6C013B0F2B00F206
:104D1000B38001A252F823F0594D0008914D0008CC
:104D2000794E0008794E0008914D00080D4E00089C
:104D3000914D0008914D0008914D0008794E0008F2
:104D4000794E0008914D0008B94D0008794E0008D1
:104D5000DF4D0008794E0008BB685A1CBA601A780B
:104D60007B681A707B685A1CBB68591CB9601B7839
:104D700013707B689A1CBB68591CB9601B78137050
:104D80007B68DA1CBB68591CB9601B78137074E02F
:104D900007F11003F868B9681A462D23FFF7E4FEFF
:104DA00078647B6CB3F1FF3F01D1002366E07B6C3C
:104DB000BA681344BB6060E0BB685A1CBA601B78D9
:104DC0007B647B6CBA681344BB60BB685A1CBA60D6
:104DD0001B787B647B6CBA681344BB604DE0BB6896
:104DE0000233BB6007F11003F868B9681A462D2337
:104DF000FFF7BAFE78647B6CB3F1FF3F01D100236B
:104E00003CE07B6CBA681344BB6036E007F11003EA
:104E1000F868B9681A462D23FFF7A6FE78647B6C04
:104E2000B3F1FF3F01D1002328E07B6CBA68134443
:104E3000BB6007F11003F868B9681A462D23FFF725
:104E400093FE78647B6CB3F1FF3F01D1002315E042
:104E50007B6CBA681344BB60BB680433BB60BB683F
:104E60000433BB60BB680433BB60BB680433BB6006
:104E7000BB680433BB6000E000BFBB68184648371E
:104E8000BD4680BD80B588B000AFF860B9607A607B
:104E9000BB687B61F8680021042200F0AEFE7869EF
:104EA000FFF72EFE03461A46FB681A807B69023321
:104EB0001846FFF725FE03467B827B8A1BB2002B38
:104EC00002DAFB6801229A707B8ADB0A9BB2DBB2B2
:104ED00003F00F03DAB2FB68DA707B8A03F48063B5
:104EE000002B02D0FB6801221A717B8A03F4007345
:104EF000002B02D0FB6801225A717B8A03F4807375
:104F0000002B02D0FB6801229A717B8A03F0800398
:104F1000002B02D0FB680122DA717B8ADBB203F03E
:104F20000F03DAB2FB681A727B6904331846FFF785
:104F3000E7FD03461A46FB685A817B69063318462B
:104F4000FFF7DEFD03461A46FB689A817B6908334A
:104F50001846FFF7D5FD03461A46FB68DA817B69E0
:104F60000A331846FFF7CCFD03461A46FB681A823F
:104F70007B690C33BB610023FB830CE07869B96962
:104F8000FFF774FEB861BB69002B01D1FF233AE043
:104F9000FB8B0133FB83FB685B89FA8B9A42EDD371
:104FA0000023FB830DE07869B9697A68FFF782FE18
:104FB000B861BB69002B01D1FF2324E0FB8B0133D7
:104FC000FB83FB689B89FA8B9A42ECD30023FB831B
:104FD00002E0FB8B0133FB83FB68DB89FA8B9A428F
:104FE000F7D30023FB8302E0FB8B0133FB83FB68D9
:104FF0001B8AFA8B9A42F7D3FB681B7A002B01D1EC
:10500000012300E000235BB218462037BD4680BD77
:1050100080B596B000AFB9607A600246FA81BB8174
:105020007B683B654A4B1B8801339AB2484B1A8018
:10503000474B1B88386D1946FFF77AFD3865FB89A9
:10504000DB029BB243F480739BB2A7F84830B7F8F9
:105050004830386D1946FFF76BFD3865386D012112
:10506000FFF766FD3865386D0021FFF761FD386593
:10507000386D0021FFF75CFD3865386D0021FFF7C2
:1050800057FD386507F114031846B96800F0CAFDEA
:1050900007F11403FB64F86C00F0CCFD0346A7F89D
:1050A0004A30F86C2E2100F0B0FD78647B6C002B48
:1050B00005D07A6CFB6CD31AA7F8563003E0B7F82A
:1050C0004A30A7F856303B6D5A1C3A65B7F856205F
:1050D000D2B21A70B7F85630002B00D124E0B7F8DE
:1050E0005630386DF96C1A4600F0C2FDB7F85630EC
:1050F0003A6D13443B657B6C002B05D13B6D5A1C0C
:105100003A6500221A700FE0B7F856300133FA6C96
:105110001344FB64B7F84A20B7F85630D31A9BB251
:10512000013BA7F84A30BCE7386D0121FFF700FDCD
:105130003865386D0121FFF7FBFC38653A6D7B68F7
:10514000D31A9BB21BB218465837BD4680BD00BF6C
:105150004009002080B400AF0F4B1B68022B13D90D
:105160000D4B00221A600D4B1B78012B04D90B4B01
:1051700000221A70FF2308E0084B1B780133DAB2D3
:10518000064B1A70002300E001235BB21846BD46AF
:105190005DF8047B704700BF380900202C0900200F
:1051A00080B483B000AF03463960FB71074BFA79D6
:1051B0001A70074B3A681A60064B41F222121A80A5
:1051C0000C37BD465DF8047B704700BF34090020F2
:1051D0003C09002040090020B0B590B004AFF86051
:1051E000B9607A60554B1B781846022100220023D3
:1051F000FAF7A0FFFB681B781946FB6801331B78A0
:105200001A46FB6802331B78F86803300078009078
:105210004B48FEF7BDFE4B4B1B680020B9681A4691
:105220004FF48073FFF7F4FE0346FB85434B197878
:10523000444B1A68FB8D35200090084611461A46EB
:10524000FB68FBF7DDFB3D4B1B781846FFF7BCF90D
:105250000346FB85FB8D002B39D0FB8DB3F5807F9A
:1052600002D94FF48073FB85344B1878354B19689D
:10527000FA8D07F1140307F112040094FBF7DEFC2A
:105280000346FB853B7D19467B7D1A46BB7DF87D39
:105290000546788A0446F88D0095019402902A48C4
:1052A000FEF776FE274B1B6807F1180210461946D9
:1052B0007A68FFF7E7FD034687F82D3000BF1F4BE4
:1052C0001B781846FBF734F897F82D3031E0FFF7DC
:1052D00041FF034687F82C3097F92C30002B12DA67
:1052E000FB681B781946FB6801331B781A46FB687C
:1052F00002331B78F8680330007800901348FEF7FB
:1053000047FE002315E097F92C30002B10D11048F0
:10531000FEF752FE094B19780A4B1A68FB8D3520AF
:105320000090084611461A46FB68FBF769FB8AE7BE
:1053300089E75BB218463037BD46B0BD340900205E
:105340003C5F00083C090020685F0008A05F00087F
:10535000D05F000880B487B000AF786000237B6125
:1053600000233B610F23FB607B68DB78002B38D088
:10537000264BDB68DB4303F4E0631B0A7B617B693C
:10538000C3F104033B617B69FA6822FA03F3FB6013
:105390007B685B781A463B6902FA03F37B617B68A2
:1053A0009B781A46FB6813407A6913437B617B69DB
:1053B0001B017B6116497B681B787A69D2B20B446A
:1053C00083F80023124B7A6812785209D2B27968B6
:1053D000097801F01F01012000FA01F143F82210C1
:1053E0000EE00B4B7A6812785209D2B279680978CC
:1053F00001F01F01012000FA01F1203243F82210D0
:105400001C37BD465DF8047B704700BF00ED00E02F
:1054100000E100E080B483B000AF78607B68042BCB
:1054200006D1094B084A126842F004021A6005E0EE
:10543000054B054A126822F004021A600C37BD467B
:105440005DF8047B704700BF10E000E080B58AB0D3
:1054500000AF4FF480500121FEF7B6FE2420012159
:10546000FEF7B2FE032387F826302023BB841823DF
:1054700087F8273007F1240337481946FCF776FCF4
:10548000032387F826308023BB84182387F827302E
:1054900007F1240330481946FCF768FC032387F81A
:1054A00026304023BB84042387F8273007F12403E8
:1054B00029481946FCF75AFC032387F826301023A5
:1054C000BB84102387F8273007F1240322481946AC
:1054D000FCF74CFC032387F826304FF48063BB8431
:1054E000102387F8273007F124031C481946FCF7DE
:1054F0003DFC032387F826304FF40063BB84482328
:1055000087F8273007F1240314481946FCF72EFCCE
:105510000023BB834FF482737B8200233B820023F2
:10552000FB830223FB8201233B830023BB824FF4D6
:1055300000737B8307233B8407F110030848194657
:1055400000F0D4F80648012100F014F900F04CF8FE
:105550002837BD4680BD00BF00080140001401404F
:105560000030014090B587B000AF184B3C1D186863
:1055700059689A68DB680FC400F0AEF81448154902
:10558000FDF74CFB14481549FDF724FB3B1D01209A
:105590001946FDF76DFB0346B3F1FF3F02D11048FA
:1055A000FEF70AFD07F117030F201946FDF760FB10
:1055B0000346B3F1FF3F02D10A48FEF7FDFCFB7D35
:1055C000002BEFD01C37BD4690BD00BF186000080F
:1055D000855600083D560008C5560008D9560008F3
:1055E000E05F0008FC5F000880B584B000AF0023D6
:1055F0007B6011484FF48061FCF782FC0023FB6064
:105600000EE00023BB6005E07B6801337B60BB6874
:105610000133BB60BB68632BF6DDFB680133FB60C5
:10562000FB68632BEDDD04484FF48061FCF75AFC06
:105630001037BD4680BD00BF0014014080B582B068
:1056400000AF0346FB7100BF0D48022100F0CEF809
:105650000346002BF8D0FB799BB20948194600F0AD
:10566000A9F800BF0648012100F0C0F80346002B4E
:10567000F8D0034800F0ACF80837BD4680BD00BF45
:105680000030014080B500AF00BF0D48022100F09E
:10569000ADF80346002BF8D00948FF2100F08AF846
:1056A00000BF0748012100F0A1F80346002BF8D005
:1056B000034800F08DF80346DBB2184680BD00BFFA
:1056C0000030014080B500AF02481021FCF718FC03
:1056D00080BD00BF0008014080B500AF0248102126
:1056E000FCF700FC80BD00BF0008014080B485B01D
:1056F00000AF786039600023FB817B681B88FB81E9
:10570000FB8903F44153FB813B681A883B685B8843
:1057100013439AB23B689B8813439AB23B68DB8879
:1057200013439AB23B681B8913439AB23B685B8967
:1057300013439AB23B689B8913439AB23B68DB8957
:1057400013439AB2FB891343FB817B68FA891A8061
:105750007B689B8B9BB223F400639AB27B689A832D
:105760003B681A8A7B681A821437BD465DF8047B51
:10577000704700BF80B483B000AF78600B46FB7009
:10578000FB78002B08D07B681B889BB243F040035A
:105790009AB27B681A8007E07B681B889BB223F073
:1057A00040039AB27B681A800C37BD465DF8047BD3
:1057B000704700BF80B483B000AF78600B467B8039
:1057C0007B687A889A810C37BD465DF8047B704708
:1057D00080B483B000AF78607B689B899BB2184629
:1057E0000C37BD465DF8047B704700BF80B485B0C0
:1057F00000AF78600B467B800023FB737B681B89BE
:105800009AB27B8813409BB2002B02D00123FB731A
:1058100001E00023FB73FB7B18461437BD465DF89F
:10582000047B704780B58AB000AF78603960002390
:10583000FB8400237B840423BB84574BFB617B6880
:105840009B88FB84FB8C23F03F03FB8407F1080358
:105850001846FEF707FC3B69FB61FA694F4BA3FB57
:1058600002139B0C7B84FA8C7B8C1343FB847B6838
:10587000FA8C9A807B681B889BB223F001039AB252
:105880007B681A800023FB843B681A68444B9A4269
:1058900015D83B681B685B00FA69B2FBF3F3BB8465
:1058A000BB8C032B01D80423BB84FA8CBB8C134321
:1058B000FB847B8C01339AB27B681A8440E03B689E
:1058C000DA884BF6FF739A4209D13B681A6813468F
:1058D0005B001344FA69B2FBF3F3BB840EE03B6850
:1058E0001A6813469B0013449A001344FA69B2FBEA
:1058F000F3F3BB84BB8C43F48043BB84BB8CC3F306
:105900000B03002B03D1BB8C43F00103BB84BA8C87
:10591000FB8C13439BB26FEA43436FEA5343FB8410
:105920007B8C4FF4967202FB03F31E4A82FB031238
:105930009211DB17D31A9BB201339AB27B681A8497
:105940007B68FA8C9A837B681B889BB243F00103C7
:105950009AB27B681A807B681B88FB84FB8C23F4DB
:10596000816323F00203FB843B689A883B685B8970
:1059700013439AB2FB8C1343FB847B68FA8C1A8026
:105980003B689A893B681B8913439AB27B681A81EA
:105990002837BD4680BD00BF00127A0083DE1B435E
:1059A000A0860100D34D621080B483B000AF786050
:1059B0000B46FB70FB78002B08D07B681B889BB2E2
:1059C00043F001039AB27B681A8007E07B681B886A
:1059D0009BB223F001039AB27B681A800C37BD4654
:1059E0005DF8047B704700BF80B483B000AF78607F
:1059F0000B46FB70FB78002B08D07B681B889BB2A2
:105A000043F480739AB27B681A8007E07B681B8836
:105A10009BB223F480739AB27B681A800C37BD4620
:105A20005DF8047B704700BF80B483B000AF78603E
:105A30000B46FB70FB78002B08D07B681B889BB261
:105A400043F400739AB27B681A8007E07B681B8876
:105A50009BB223F400739AB27B681A800C37BD4660
:105A60005DF8047B704700BF80B483B000AF7860FE
:105A70000B46FB70FB78002B08D07B681B889BB221
:105A800043F480639AB27B681A8007E07B681B88C6
:105A90009BB223F480639AB27B681A800C37BD46B0
:105AA0005DF8047B704700BF80B483B000AF7860BE
:105AB0000B46FB70FB789AB27B681A820C37BD46A6
:105AC0005DF8047B704700BF80B483B000AF78609E
:105AD0007B681B8A9BB2DBB218460C37BD465DF86B
